{
  "contractName": "RLE",
  "abi": [
    {
      "constant": true,
      "inputs": [],
      "name": "name",
      "outputs": [
        {
          "name": "",
          "type": "string"
        }
      ],
      "payable": false,
      "stateMutability": "view",
      "type": "function"
    },
    {
      "constant": true,
      "inputs": [],
      "name": "INITIAL_SUPPLY",
      "outputs": [
        {
          "name": "",
          "type": "uint256"
        }
      ],
      "payable": false,
      "stateMutability": "view",
      "type": "function"
    },
    {
      "constant": true,
      "inputs": [],
      "name": "decimals",
      "outputs": [
        {
          "name": "",
          "type": "uint8"
        }
      ],
      "payable": false,
      "stateMutability": "view",
      "type": "function"
    },
    {
      "constant": true,
      "inputs": [],
      "name": "symbol",
      "outputs": [
        {
          "name": "",
          "type": "string"
        }
      ],
      "payable": false,
      "stateMutability": "view",
      "type": "function"
    },
    {
      "constant": false,
      "inputs": [],
      "name": "RLE_Coin",
      "outputs": [],
      "payable": false,
      "stateMutability": "nonpayable",
      "type": "function"
    },
    {
      "constant": true,
      "inputs": [],
      "name": "totalSupply",
      "outputs": [
        {
          "name": "_totalSupply",
          "type": "uint256"
        }
      ],
      "payable": false,
      "stateMutability": "pure",
      "type": "function"
    },
    {
      "constant": true,
      "inputs": [
        {
          "name": "_addr",
          "type": "address"
        }
      ],
      "name": "balanceOf",
      "outputs": [
        {
          "name": "balance",
          "type": "uint256"
        }
      ],
      "payable": false,
      "stateMutability": "view",
      "type": "function"
    },
    {
      "constant": false,
      "inputs": [
        {
          "name": "_to",
          "type": "address"
        },
        {
          "name": "_value",
          "type": "uint256"
        }
      ],
      "name": "transfer",
      "outputs": [
        {
          "name": "success",
          "type": "bool"
        }
      ],
      "payable": false,
      "stateMutability": "nonpayable",
      "type": "function"
    },
    {
      "constant": false,
      "inputs": [
        {
          "name": "_from",
          "type": "address"
        },
        {
          "name": "_to",
          "type": "address"
        },
        {
          "name": "_value",
          "type": "uint256"
        }
      ],
      "name": "transferFrom",
      "outputs": [
        {
          "name": "success",
          "type": "bool"
        }
      ],
      "payable": false,
      "stateMutability": "nonpayable",
      "type": "function"
    },
    {
      "constant": false,
      "inputs": [
        {
          "name": "_spender",
          "type": "address"
        },
        {
          "name": "_value",
          "type": "uint256"
        }
      ],
      "name": "approve",
      "outputs": [
        {
          "name": "success",
          "type": "bool"
        }
      ],
      "payable": false,
      "stateMutability": "nonpayable",
      "type": "function"
    },
    {
      "constant": true,
      "inputs": [
        {
          "name": "_owner",
          "type": "address"
        },
        {
          "name": "_spender",
          "type": "address"
        }
      ],
      "name": "allowance",
      "outputs": [
        {
          "name": "remaining",
          "type": "uint256"
        }
      ],
      "payable": false,
      "stateMutability": "view",
      "type": "function"
    }
  ],
  "bytecode": "0x6080604052612ee060005534801561001657600080fd5b5061092f806100266000396000f3fe608060405234801561001057600080fd5b50600436106100a95760003560e01c80632ff2e9dc116100715780632ff2e9dc14610245578063313ce5671461026357806370a082311461028757806395d89b41146102df578063a9059cbb14610362578063dd62ed3e146103c8576100a9565b8063044223c2146100ae57806306fdde03146100b8578063095ea7b31461013b57806318160ddd146101a157806323b872dd146101bf575b600080fd5b6100b6610440565b005b6100c0610489565b6040518080602001828103825283818151815260200191508051906020019080838360005b838110156101005780820151818401526020810190506100e5565b50505050905090810190601f16801561012d5780820380516001836020036101000a031916815260200191505b509250505060405180910390f35b6101876004803603604081101561015157600080fd5b81019080803573ffffffffffffffffffffffffffffffffffffffff169060200190929190803590602001909291905050506104c2565b604051808215151515815260200191505060405180910390f35b6101a961054f565b6040518082815260200191505060405180910390f35b61022b600480360360608110156101d557600080fd5b81019080803573ffffffffffffffffffffffffffffffffffffffff169060200190929190803573ffffffffffffffffffffffffffffffffffffffff1690602001909291908035906020019092919050505061055a565b604051808215151515815260200191505060405180910390f35b61024d610723565b6040518082815260200191505060405180910390f35b61026b610729565b604051808260ff1660ff16815260200191505060405180910390f35b6102c96004803603602081101561029d57600080fd5b81019080803573ffffffffffffffffffffffffffffffffffffffff16906020019092919050505061072e565b6040518082815260200191505060405180910390f35b6102e7610777565b6040518080602001828103825283818151815260200191508051906020019080838360005b8381101561032757808201518184015260208101905061030c565b50505050905090810190601f1680156103545780820380516001836020036101000a031916815260200191505b509250505060405180910390f35b6103ae6004803603604081101561037857600080fd5b81019080803573ffffffffffffffffffffffffffffffffffffffff169060200190929190803590602001909291905050506107b0565b604051808215151515815260200191505060405180910390f35b61042a600480360360408110156103de57600080fd5b81019080803573ffffffffffffffffffffffffffffffffffffffff169060200190929190803573ffffffffffffffffffffffffffffffffffffffff16906020019092919050505061087c565b6040518082815260200191505060405180910390f35b620f4240600160003373ffffffffffffffffffffffffffffffffffffffff1673ffffffffffffffffffffffffffffffffffffffff16815260200190815260200160002081905550565b6040518060400160405280600881526020017f524c455f436f696e00000000000000000000000000000000000000000000000081525081565b600081600260003373ffffffffffffffffffffffffffffffffffffffff1673ffffffffffffffffffffffffffffffffffffffff16815260200190815260200160002060008573ffffffffffffffffffffffffffffffffffffffff1673ffffffffffffffffffffffffffffffffffffffff168152602001908152602001600020819055506001905092915050565b6000620f4240905090565b600080600260008673ffffffffffffffffffffffffffffffffffffffff1673ffffffffffffffffffffffffffffffffffffffff16815260200190815260200160002060003373ffffffffffffffffffffffffffffffffffffffff1673ffffffffffffffffffffffffffffffffffffffff168152602001908152602001600020541180156105e75750600082115b801561066f575081600260008673ffffffffffffffffffffffffffffffffffffffff1673ffffffffffffffffffffffffffffffffffffffff16815260200190815260200160002060003373ffffffffffffffffffffffffffffffffffffffff1673ffffffffffffffffffffffffffffffffffffffff1681526020019081526020016000205410155b156107175781600160008673ffffffffffffffffffffffffffffffffffffffff1673ffffffffffffffffffffffffffffffffffffffff1681526020019081526020016000206000828254039250508190555081600160008573ffffffffffffffffffffffffffffffffffffffff1673ffffffffffffffffffffffffffffffffffffffff168152602001908152602001600020600082825401925050819055506001905061071c565b600090505b9392505050565b60005481565b601281565b6000600160008373ffffffffffffffffffffffffffffffffffffffff1673ffffffffffffffffffffffffffffffffffffffff168152602001908152602001600020549050919050565b6040518060400160405280600381526020017f524c45000000000000000000000000000000000000000000000000000000000081525081565b600080821180156107c957506107c53361072e565b8211155b156108715781600160003373ffffffffffffffffffffffffffffffffffffffff1673ffffffffffffffffffffffffffffffffffffffff1681526020019081526020016000206000828254039250508190555081600160008573ffffffffffffffffffffffffffffffffffffffff1673ffffffffffffffffffffffffffffffffffffffff1681526020019081526020016000206000828254019250508190555060019050610876565b600090505b92915050565b6000600260008473ffffffffffffffffffffffffffffffffffffffff1673ffffffffffffffffffffffffffffffffffffffff16815260200190815260200160002060008373ffffffffffffffffffffffffffffffffffffffff1673ffffffffffffffffffffffffffffffffffffffff1681526020019081526020016000205490509291505056fea165627a7a7230582027cebc5b27f02d3369d76c37b4351e8f7f93dece3e21c19e46fbc0cb484d691d0029",
  "source": "pragma solidity ^0.5.8;\n\n  // Zuerst müssen die Funktionen des Interface in konkrete Angaben des Tokens umgesetzt werden\n  // constant = value cannot chance\n  // msg.sender = Die Adresse, die momentan mit dem Smart Contract interagiert\n\ninterface ERC20_Interface {\n\n      function totalSupply() pure external returns (uint _totalSupply);\n    function balanceOf(address _owner) pure external returns (uint balance);\n    function transfer(address _to, uint _value) external returns (bool success);\n    function transferFrom(address _from, address _to, uint _value) external returns (bool success);\n    function approve(address _owner, address spender) pure external returns (uint);\n    function allowance(address _owner, address _spender) pure external returns (uint remaining);\n    event Transfer(address indexed _from, address indexed _to, uint _value);\n    event Approval(address indexed _owner, address indexed _spender, uint _value);\n\n}\n\n\ncontract RLE {\n\n    string public constant symbol = \"RLE\";\n    string public constant name = \"RLE_Coin\";\n    uint8 public constant decimals = 18;\n    uint public INITIAL_SUPPLY = 12000;\n\n\n    uint private constant __totalSupply = 1000000;\n\n    // die Balance eines Users wird mit der Adresse gleichgesetzt\n    mapping (address => uint) private __balanceOf;\n\n    //erlauben das jemand den Token eines anderen verschieben kann\n    mapping (address => mapping (address => uint)) private __allowance;\n\n    //Der Ersteller des Smart Contract hat die Kontrolle über den total Supply\n    //Damit wird verhindert das sich jemand auf irgendeiner Weise eigene Tokens erstellen kann\n    function RLE_Coin() public {\n      __balanceOf[msg.sender] = __totalSupply;\n\n    }\n\n\n    //Maximale Anzahl der Token = 1000\n    function totalSupply() pure public returns (uint _totalSupply) {\n        _totalSupply = __totalSupply;\n    }\n\n    //Hier wird der Ort für das Speichern des Balance angegeben\n    function balanceOf(address _addr) view public returns (uint balance) {\n         return __balanceOf[_addr];\n\n    }\n\n    // Es wird geprüft ob genug Balance für einen Transfer vorhanden ist.\n    function transfer(address _to, uint _value) public returns (bool success) {\n        if (_value > 0 && _value <= balanceOf(msg.sender)) {\n            __balanceOf[msg.sender] -= _value;\n            __balanceOf[_to] += _value;\n            return true;\n        }\n        return false;\n\n    }\n\n    //Wir erlauben das jemand auf Befehl Tokens unserer Wallet transferiert\n    function transferFrom(address _from, address _to, uint _value) public returns (bool success) {\n      if  (__allowance[_from][msg.sender] > 0 &&\n          _value >0 &&\n          __allowance[_from][msg.sender] >= _value) {\n          __balanceOf[_from] -= _value;\n          __balanceOf[_to] += _value;\n            return true;\n          }\n            return false;\n          }\n\n    //Hiermit wird die Erlaubnis erteilt, dass jemand den Token eines anderen verschieben kann\n    function approve(address _spender, uint _value) public returns (bool success) {\n        __allowance[msg.sender][_spender] = _value;\n        return true;\n    }\n\n    // 1: Es wird erst geprüft ob der Besitzer und derjenige der den Smart Contract aufruft durch allowance klargestellt ist\n    // 2: Könnte allerdings probleme bringen, wenn der User undefiniert ist --> owner, msg.sender\n    // 3: Derjenige hat dann die Rechte Token zu transferieren\n    function allowance(address _owner, address _spender) view public returns (uint remaining) {\n      return __allowance[_owner][_spender];\n       {\n\n\n\n        }\n    }\n\n}\n",
  "sourcePath": "C:/Users/sOehmann/Desktop/ERC20/contracts/RLE.sol",
  "compiler": {
    "name": "solc",
    "version": "0.5.8+commit.23d335f2.Emscripten.clang"
  },
  "schemaVersion": "3.0.16",
  "updatedAt": "2019-10-15T12:36:11.251Z",
  "devdoc": {
    "methods": {}
  },
  "userdoc": {
    "methods": {}
  }
}